{
	"contracts/Clase4/B.sol": {
		"B": {
			"abi": [
				{
					"inputs": [],
					"name": "count",
					"outputs": [
						{
							"internalType": "uint256",
							"name": "",
							"type": "uint256"
						}
					],
					"stateMutability": "view",
					"type": "function"
				},
				{
					"inputs": [
						{
							"internalType": "uint256",
							"name": "_count",
							"type": "uint256"
						}
					],
					"name": "setCount",
					"outputs": [],
					"stateMutability": "nonpayable",
					"type": "function"
				}
			],
			"devdoc": {
				"kind": "dev",
				"methods": {},
				"version": 1
			},
			"evm": {
				"assembly": "    /* \"contracts/Clase4/B.sol\":90:112  contract B is A {... */\n  mstore(0x40, 0x80)\n  callvalue\n  dup1\n  iszero\n  tag_1\n  jumpi\n  0x00\n  dup1\n  revert\ntag_1:\n  pop\n  dataSize(sub_0)\n  dup1\n  dataOffset(sub_0)\n  0x00\n  codecopy\n  0x00\n  return\nstop\n\nsub_0: assembly {\n        /* \"contracts/Clase4/B.sol\":90:112  contract B is A {... */\n      mstore(0x40, 0x80)\n      callvalue\n      dup1\n      iszero\n      tag_1\n      jumpi\n      0x00\n      dup1\n      revert\n    tag_1:\n      pop\n      jumpi(tag_2, lt(calldatasize, 0x04))\n      shr(0xe0, calldataload(0x00))\n      dup1\n      0x06661abd\n      eq\n      tag_3\n      jumpi\n      dup1\n      0xd14e62b8\n      eq\n      tag_4\n      jumpi\n    tag_2:\n      0x00\n      dup1\n      revert\n        /* \"contracts/Clase4/A.sol\":89:109  uint256 public count */\n    tag_3:\n      tag_5\n      tag_6\n      jump\t// in\n    tag_5:\n      mload(0x40)\n      tag_7\n      swap2\n      swap1\n      tag_8\n      jump\t// in\n    tag_7:\n      mload(0x40)\n      dup1\n      swap2\n      sub\n      swap1\n      return\n        /* \"contracts/Clase4/A.sol\":118:194  function setCount(uint256 _count) external {... */\n    tag_4:\n      tag_9\n      0x04\n      dup1\n      calldatasize\n      sub\n      dup2\n      add\n      swap1\n      tag_10\n      swap2\n      swap1\n      tag_11\n      jump\t// in\n    tag_10:\n      tag_12\n      jump\t// in\n    tag_9:\n      stop\n        /* \"contracts/Clase4/A.sol\":89:109  uint256 public count */\n    tag_6:\n      sload(0x00)\n      dup2\n      jump\t// out\n        /* \"contracts/Clase4/A.sol\":118:194  function setCount(uint256 _count) external {... */\n    tag_12:\n        /* \"contracts/Clase4/A.sol\":180:186  _count */\n      dup1\n        /* \"contracts/Clase4/A.sol\":172:177  count */\n      0x00\n        /* \"contracts/Clase4/A.sol\":172:186  count = _count */\n      dup2\n      swap1\n      sstore\n      pop\n        /* \"contracts/Clase4/A.sol\":118:194  function setCount(uint256 _count) external {... */\n      pop\n      jump\t// out\n        /* \"#utility.yul\":7:84   */\n    tag_14:\n        /* \"#utility.yul\":44:51   */\n      0x00\n        /* \"#utility.yul\":73:78   */\n      dup2\n        /* \"#utility.yul\":62:78   */\n      swap1\n      pop\n        /* \"#utility.yul\":7:84   */\n      swap2\n      swap1\n      pop\n      jump\t// out\n        /* \"#utility.yul\":90:208   */\n    tag_15:\n        /* \"#utility.yul\":177:201   */\n      tag_24\n        /* \"#utility.yul\":195:200   */\n      dup2\n        /* \"#utility.yul\":177:201   */\n      tag_14\n      jump\t// in\n    tag_24:\n        /* \"#utility.yul\":172:175   */\n      dup3\n        /* \"#utility.yul\":165:202   */\n      mstore\n        /* \"#utility.yul\":90:208   */\n      pop\n      pop\n      jump\t// out\n        /* \"#utility.yul\":214:436   */\n    tag_8:\n        /* \"#utility.yul\":307:311   */\n      0x00\n        /* \"#utility.yul\":345:347   */\n      0x20\n        /* \"#utility.yul\":334:343   */\n      dup3\n        /* \"#utility.yul\":330:348   */\n      add\n        /* \"#utility.yul\":322:348   */\n      swap1\n      pop\n        /* \"#utility.yul\":358:429   */\n      tag_26\n        /* \"#utility.yul\":426:427   */\n      0x00\n        /* \"#utility.yul\":415:424   */\n      dup4\n        /* \"#utility.yul\":411:428   */\n      add\n        /* \"#utility.yul\":402:408   */\n      dup5\n        /* \"#utility.yul\":358:429   */\n      tag_15\n      jump\t// in\n    tag_26:\n        /* \"#utility.yul\":214:436   */\n      swap3\n      swap2\n      pop\n      pop\n      jump\t// out\n        /* \"#utility.yul\":523:640   */\n    tag_17:\n        /* \"#utility.yul\":632:633   */\n      0x00\n        /* \"#utility.yul\":629:630   */\n      dup1\n        /* \"#utility.yul\":622:634   */\n      revert\n        /* \"#utility.yul\":769:891   */\n    tag_19:\n        /* \"#utility.yul\":842:866   */\n      tag_31\n        /* \"#utility.yul\":860:865   */\n      dup2\n        /* \"#utility.yul\":842:866   */\n      tag_14\n      jump\t// in\n    tag_31:\n        /* \"#utility.yul\":835:840   */\n      dup2\n        /* \"#utility.yul\":832:867   */\n      eq\n        /* \"#utility.yul\":822:885   */\n      tag_32\n      jumpi\n        /* \"#utility.yul\":881:882   */\n      0x00\n        /* \"#utility.yul\":878:879   */\n      dup1\n        /* \"#utility.yul\":871:883   */\n      revert\n        /* \"#utility.yul\":822:885   */\n    tag_32:\n        /* \"#utility.yul\":769:891   */\n      pop\n      jump\t// out\n        /* \"#utility.yul\":897:1036   */\n    tag_20:\n        /* \"#utility.yul\":943:948   */\n      0x00\n        /* \"#utility.yul\":981:987   */\n      dup2\n        /* \"#utility.yul\":968:988   */\n      calldataload\n        /* \"#utility.yul\":959:988   */\n      swap1\n      pop\n        /* \"#utility.yul\":997:1030   */\n      tag_34\n        /* \"#utility.yul\":1024:1029   */\n      dup2\n        /* \"#utility.yul\":997:1030   */\n      tag_19\n      jump\t// in\n    tag_34:\n        /* \"#utility.yul\":897:1036   */\n      swap3\n      swap2\n      pop\n      pop\n      jump\t// out\n        /* \"#utility.yul\":1042:1371   */\n    tag_11:\n        /* \"#utility.yul\":1101:1107   */\n      0x00\n        /* \"#utility.yul\":1150:1152   */\n      0x20\n        /* \"#utility.yul\":1138:1147   */\n      dup3\n        /* \"#utility.yul\":1129:1136   */\n      dup5\n        /* \"#utility.yul\":1125:1148   */\n      sub\n        /* \"#utility.yul\":1121:1153   */\n      slt\n        /* \"#utility.yul\":1118:1237   */\n      iszero\n      tag_36\n      jumpi\n        /* \"#utility.yul\":1156:1235   */\n      tag_37\n      tag_17\n      jump\t// in\n    tag_37:\n        /* \"#utility.yul\":1118:1237   */\n    tag_36:\n        /* \"#utility.yul\":1276:1277   */\n      0x00\n        /* \"#utility.yul\":1301:1354   */\n      tag_38\n        /* \"#utility.yul\":1346:1353   */\n      dup5\n        /* \"#utility.yul\":1337:1343   */\n      dup3\n        /* \"#utility.yul\":1326:1335   */\n      dup6\n        /* \"#utility.yul\":1322:1344   */\n      add\n        /* \"#utility.yul\":1301:1354   */\n      tag_20\n      jump\t// in\n    tag_38:\n        /* \"#utility.yul\":1291:1354   */\n      swap2\n      pop\n        /* \"#utility.yul\":1247:1364   */\n      pop\n        /* \"#utility.yul\":1042:1371   */\n      swap3\n      swap2\n      pop\n      pop\n      jump\t// out\n\n    auxdata: 0xa2646970667358221220ce2f86ca9531b5dbd3c9743efe6b73c78b6c105c7efede1710474d5d8b1b27da64736f6c634300080f0033\n}\n",
				"bytecode": {
					"linkReferences": {},
					"object": "608060405234801561001057600080fd5b50610133806100206000396000f3fe6080604052348015600f57600080fd5b506004361060325760003560e01c806306661abd146037578063d14e62b8146051575b600080fd5b603d6069565b604051604891906090565b60405180910390f35b606760048036038101906063919060d5565b606f565b005b60005481565b8060008190555050565b6000819050919050565b608a816079565b82525050565b600060208201905060a360008301846083565b92915050565b600080fd5b60b5816079565b811460bf57600080fd5b50565b60008135905060cf8160ae565b92915050565b60006020828403121560e85760e760a9565b5b600060f48482850160c2565b9150509291505056fea2646970667358221220ce2f86ca9531b5dbd3c9743efe6b73c78b6c105c7efede1710474d5d8b1b27da64736f6c634300080f0033",
					"opcodes": "PUSH1 0x80 PUSH1 0x40 MSTORE CALLVALUE DUP1 ISZERO PUSH2 0x10 JUMPI PUSH1 0x0 DUP1 REVERT JUMPDEST POP PUSH2 0x133 DUP1 PUSH2 0x20 PUSH1 0x0 CODECOPY PUSH1 0x0 RETURN INVALID PUSH1 0x80 PUSH1 0x40 MSTORE CALLVALUE DUP1 ISZERO PUSH1 0xF JUMPI PUSH1 0x0 DUP1 REVERT JUMPDEST POP PUSH1 0x4 CALLDATASIZE LT PUSH1 0x32 JUMPI PUSH1 0x0 CALLDATALOAD PUSH1 0xE0 SHR DUP1 PUSH4 0x6661ABD EQ PUSH1 0x37 JUMPI DUP1 PUSH4 0xD14E62B8 EQ PUSH1 0x51 JUMPI JUMPDEST PUSH1 0x0 DUP1 REVERT JUMPDEST PUSH1 0x3D PUSH1 0x69 JUMP JUMPDEST PUSH1 0x40 MLOAD PUSH1 0x48 SWAP2 SWAP1 PUSH1 0x90 JUMP JUMPDEST PUSH1 0x40 MLOAD DUP1 SWAP2 SUB SWAP1 RETURN JUMPDEST PUSH1 0x67 PUSH1 0x4 DUP1 CALLDATASIZE SUB DUP2 ADD SWAP1 PUSH1 0x63 SWAP2 SWAP1 PUSH1 0xD5 JUMP JUMPDEST PUSH1 0x6F JUMP JUMPDEST STOP JUMPDEST PUSH1 0x0 SLOAD DUP2 JUMP JUMPDEST DUP1 PUSH1 0x0 DUP2 SWAP1 SSTORE POP POP JUMP JUMPDEST PUSH1 0x0 DUP2 SWAP1 POP SWAP2 SWAP1 POP JUMP JUMPDEST PUSH1 0x8A DUP2 PUSH1 0x79 JUMP JUMPDEST DUP3 MSTORE POP POP JUMP JUMPDEST PUSH1 0x0 PUSH1 0x20 DUP3 ADD SWAP1 POP PUSH1 0xA3 PUSH1 0x0 DUP4 ADD DUP5 PUSH1 0x83 JUMP JUMPDEST SWAP3 SWAP2 POP POP JUMP JUMPDEST PUSH1 0x0 DUP1 REVERT JUMPDEST PUSH1 0xB5 DUP2 PUSH1 0x79 JUMP JUMPDEST DUP2 EQ PUSH1 0xBF JUMPI PUSH1 0x0 DUP1 REVERT JUMPDEST POP JUMP JUMPDEST PUSH1 0x0 DUP2 CALLDATALOAD SWAP1 POP PUSH1 0xCF DUP2 PUSH1 0xAE JUMP JUMPDEST SWAP3 SWAP2 POP POP JUMP JUMPDEST PUSH1 0x0 PUSH1 0x20 DUP3 DUP5 SUB SLT ISZERO PUSH1 0xE8 JUMPI PUSH1 0xE7 PUSH1 0xA9 JUMP JUMPDEST JUMPDEST PUSH1 0x0 PUSH1 0xF4 DUP5 DUP3 DUP6 ADD PUSH1 0xC2 JUMP JUMPDEST SWAP2 POP POP SWAP3 SWAP2 POP POP JUMP INVALID LOG2 PUSH5 0x6970667358 0x22 SLT KECCAK256 0xCE 0x2F DUP7 0xCA SWAP6 BALANCE 0xB5 0xDB 0xD3 0xC9 PUSH21 0x3EFE6B73C78B6C105C7EFEDE1710474D5D8B1B27DA PUSH5 0x736F6C6343 STOP ADDMOD 0xF STOP CALLER "
				},
				"gasEstimates": {
					"creation": {
						"codeDepositCost": "61400",
						"executionCost": "111",
						"totalCost": "61511"
					},
					"external": {
						"count()": "2407",
						"setCount(uint256)": "22520"
					}
				},
				"methodIdentifiers": {
					"count()": "06661abd",
					"setCount(uint256)": "d14e62b8"
				}
			},
			"storageLayout": {
				"storage": [
					{
						"astId": 3,
						"contract": "contracts/Clase4/B.sol:B",
						"label": "count",
						"offset": 0,
						"slot": "0",
						"type": "t_uint256"
					}
				],
				"types": {
					"t_uint256": {
						"encoding": "inplace",
						"label": "uint256",
						"numberOfBytes": "32"
					}
				}
			},
			"userdoc": {
				"kind": "user",
				"methods": {},
				"version": 1
			}
		}
	}
}