{
	"contracts/TestExploit.sol": {
		"TestDeployment": {
			"abi": [
				{
					"stateMutability": "payable",
					"type": "fallback"
				},
				{
					"inputs": [
						{
							"internalType": "address",
							"name": "",
							"type": "address"
						}
					],
					"name": "balances",
					"outputs": [
						{
							"internalType": "uint256",
							"name": "",
							"type": "uint256"
						}
					],
					"stateMutability": "view",
					"type": "function"
				},
				{
					"inputs": [],
					"name": "countFallback",
					"outputs": [
						{
							"internalType": "uint256",
							"name": "",
							"type": "uint256"
						}
					],
					"stateMutability": "view",
					"type": "function"
				},
				{
					"inputs": [],
					"name": "countReceive",
					"outputs": [
						{
							"internalType": "uint256",
							"name": "",
							"type": "uint256"
						}
					],
					"stateMutability": "view",
					"type": "function"
				},
				{
					"inputs": [],
					"name": "deposit",
					"outputs": [],
					"stateMutability": "payable",
					"type": "function"
				},
				{
					"inputs": [],
					"name": "withdraw",
					"outputs": [
						{
							"internalType": "bool",
							"name": "success",
							"type": "bool"
						}
					],
					"stateMutability": "nonpayable",
					"type": "function"
				},
				{
					"stateMutability": "payable",
					"type": "receive"
				}
			],
			"devdoc": {
				"kind": "dev",
				"methods": {},
				"version": 1
			},
			"evm": {
				"assembly": "    /* \"contracts/TestExploit.sol\":66:674  contract TestDeployment {... */\n  mstore(0x40, 0x80)\n  callvalue\n  dup1\n  iszero\n  tag_1\n  jumpi\n  0x00\n  dup1\n  revert\ntag_1:\n  pop\n  dataSize(sub_0)\n  dup1\n  dataOffset(sub_0)\n  0x00\n  codecopy\n  0x00\n  return\nstop\n\nsub_0: assembly {\n        /* \"contracts/TestExploit.sol\":66:674  contract TestDeployment {... */\n      mstore(0x40, 0x80)\n      jumpi(tag_1, lt(calldatasize, 0x04))\n      shr(0xe0, calldataload(0x00))\n      dup1\n      0x1ee282c7\n      eq\n      tag_3\n      jumpi\n      dup1\n      0x27e235e3\n      eq\n      tag_4\n      jumpi\n      dup1\n      0x3ccfd60b\n      eq\n      tag_5\n      jumpi\n      dup1\n      0x724ba2c1\n      eq\n      tag_6\n      jumpi\n      dup1\n      0xd0e30db0\n      eq\n      tag_7\n      jumpi\n      jump(tag_2)\n    tag_1:\n      jumpi(tag_2, calldatasize)\n        /* \"contracts/TestExploit.sol\":651:663  countReceive */\n      0x01\n      0x00\n        /* \"contracts/TestExploit.sol\":651:665  countReceive-- */\n      dup2\n      sload\n      dup1\n      swap3\n      swap2\n      swap1\n      tag_10\n      swap1\n      tag_11\n      jump\t// in\n    tag_10:\n      swap2\n      swap1\n      pop\n      sstore\n      stop\n        /* \"contracts/TestExploit.sol\":66:674  contract TestDeployment {... */\n    tag_2:\n        /* \"contracts/TestExploit.sol\":595:608  countFallback */\n      0x00\n      dup1\n        /* \"contracts/TestExploit.sol\":595:610  countFallback++ */\n      dup2\n      sload\n      dup1\n      swap3\n      swap2\n      swap1\n      tag_14\n      swap1\n      tag_15\n      jump\t// in\n    tag_14:\n      swap2\n      swap1\n      pop\n      sstore\n      stop\n        /* \"contracts/TestExploit.sol\":97:125  uint256 public countFallback */\n    tag_3:\n      callvalue\n      dup1\n      iszero\n      tag_16\n      jumpi\n      0x00\n      dup1\n      revert\n    tag_16:\n      pop\n      tag_17\n      tag_18\n      jump\t// in\n    tag_17:\n      mload(0x40)\n      tag_19\n      swap2\n      swap1\n      tag_20\n      jump\t// in\n    tag_19:\n      mload(0x40)\n      dup1\n      swap2\n      sub\n      swap1\n      return\n        /* \"contracts/TestExploit.sol\":168:211  mapping(address => uint256) public balances */\n    tag_4:\n      callvalue\n      dup1\n      iszero\n      tag_21\n      jumpi\n      0x00\n      dup1\n      revert\n    tag_21:\n      pop\n      tag_22\n      0x04\n      dup1\n      calldatasize\n      sub\n      dup2\n      add\n      swap1\n      tag_23\n      swap2\n      swap1\n      tag_24\n      jump\t// in\n    tag_23:\n      tag_25\n      jump\t// in\n    tag_22:\n      mload(0x40)\n      tag_26\n      swap2\n      swap1\n      tag_20\n      jump\t// in\n    tag_26:\n      mload(0x40)\n      dup1\n      swap2\n      sub\n      swap1\n      return\n        /* \"contracts/TestExploit.sol\":315:455  function withdraw() external returns(bool success) {... */\n    tag_5:\n      callvalue\n      dup1\n      iszero\n      tag_27\n      jumpi\n      0x00\n      dup1\n      revert\n    tag_27:\n      pop\n      tag_28\n      tag_29\n      jump\t// in\n    tag_28:\n      mload(0x40)\n      tag_30\n      swap2\n      swap1\n      tag_31\n      jump\t// in\n    tag_30:\n      mload(0x40)\n      dup1\n      swap2\n      sub\n      swap1\n      return\n        /* \"contracts/TestExploit.sol\":132:159  uint256 public countReceive */\n    tag_6:\n      callvalue\n      dup1\n      iszero\n      tag_32\n      jumpi\n      0x00\n      dup1\n      revert\n    tag_32:\n      pop\n      tag_33\n      tag_34\n      jump\t// in\n    tag_33:\n      mload(0x40)\n      tag_35\n      swap2\n      swap1\n      tag_20\n      jump\t// in\n    tag_35:\n      mload(0x40)\n      dup1\n      swap2\n      sub\n      swap1\n      return\n        /* \"contracts/TestExploit.sol\":220:307  function deposit() external payable {... */\n    tag_7:\n      tag_36\n      tag_37\n      jump\t// in\n    tag_36:\n      stop\n        /* \"contracts/TestExploit.sol\":97:125  uint256 public countFallback */\n    tag_18:\n      sload(0x00)\n      dup2\n      jump\t// out\n        /* \"contracts/TestExploit.sol\":168:211  mapping(address => uint256) public balances */\n    tag_25:\n      mstore(0x20, 0x02)\n      dup1\n      0x00\n      mstore\n      keccak256(0x00, 0x40)\n      0x00\n      swap2\n      pop\n      swap1\n      pop\n      sload\n      dup2\n      jump\t// out\n        /* \"contracts/TestExploit.sol\":315:455  function withdraw() external returns(bool success) {... */\n    tag_29:\n        /* \"contracts/TestExploit.sol\":352:364  bool success */\n      0x00\n        /* \"contracts/TestExploit.sol\":398:408  msg.sender */\n      caller\n        /* \"contracts/TestExploit.sol\":390:414  payable(msg.sender).call */\n      0xffffffffffffffffffffffffffffffffffffffff\n      and\n        /* \"contracts/TestExploit.sol\":422:430  balances */\n      0x02\n        /* \"contracts/TestExploit.sol\":422:442  balances[msg.sender] */\n      0x00\n        /* \"contracts/TestExploit.sol\":431:441  msg.sender */\n      caller\n        /* \"contracts/TestExploit.sol\":422:442  balances[msg.sender] */\n      0xffffffffffffffffffffffffffffffffffffffff\n      and\n      0xffffffffffffffffffffffffffffffffffffffff\n      and\n      dup2\n      mstore\n      0x20\n      add\n      swap1\n      dup2\n      mstore\n      0x20\n      add\n      0x00\n      keccak256\n      sload\n        /* \"contracts/TestExploit.sol\":390:447  payable(msg.sender).call{value: balances[msg.sender]}(\"\") */\n      mload(0x40)\n      tag_39\n      swap1\n      tag_40\n      jump\t// in\n    tag_39:\n      0x00\n      mload(0x40)\n      dup1\n      dup4\n      sub\n      dup2\n      dup6\n      dup8\n      gas\n      call\n      swap3\n      pop\n      pop\n      pop\n      returndatasize\n      dup1\n      0x00\n      dup2\n      eq\n      tag_43\n      jumpi\n      mload(0x40)\n      swap2\n      pop\n      and(add(returndatasize, 0x3f), not(0x1f))\n      dup3\n      add\n      0x40\n      mstore\n      returndatasize\n      dup3\n      mstore\n      returndatasize\n      0x00\n      0x20\n      dup5\n      add\n      returndatacopy\n      jump(tag_42)\n    tag_43:\n      0x60\n      swap2\n      pop\n    tag_42:\n      pop\n        /* \"contracts/TestExploit.sol\":377:447  (success,) = payable(msg.sender).call{value: balances[msg.sender]}(\"\") */\n      pop\n      dup1\n      swap2\n      pop\n      pop\n        /* \"contracts/TestExploit.sol\":315:455  function withdraw() external returns(bool success) {... */\n      swap1\n      jump\t// out\n        /* \"contracts/TestExploit.sol\":132:159  uint256 public countReceive */\n    tag_34:\n      sload(0x01)\n      dup2\n      jump\t// out\n        /* \"contracts/TestExploit.sol\":220:307  function deposit() external payable {... */\n    tag_37:\n        /* \"contracts/TestExploit.sol\":290:299  msg.value */\n      callvalue\n        /* \"contracts/TestExploit.sol\":267:275  balances */\n      0x02\n        /* \"contracts/TestExploit.sol\":267:287  balances[msg.sender] */\n      0x00\n        /* \"contracts/TestExploit.sol\":276:286  msg.sender */\n      caller\n        /* \"contracts/TestExploit.sol\":267:287  balances[msg.sender] */\n      0xffffffffffffffffffffffffffffffffffffffff\n      and\n      0xffffffffffffffffffffffffffffffffffffffff\n      and\n      dup2\n      mstore\n      0x20\n      add\n      swap1\n      dup2\n      mstore\n      0x20\n      add\n      0x00\n      keccak256\n        /* \"contracts/TestExploit.sol\":267:299  balances[msg.sender] = msg.value */\n      dup2\n      swap1\n      sstore\n      pop\n        /* \"contracts/TestExploit.sol\":220:307  function deposit() external payable {... */\n      jump\t// out\n        /* \"#utility.yul\":7:187   */\n    tag_45:\n        /* \"#utility.yul\":55:132   */\n      0x4e487b7100000000000000000000000000000000000000000000000000000000\n        /* \"#utility.yul\":52:53   */\n      0x00\n        /* \"#utility.yul\":45:133   */\n      mstore\n        /* \"#utility.yul\":152:156   */\n      0x11\n        /* \"#utility.yul\":149:150   */\n      0x04\n        /* \"#utility.yul\":142:157   */\n      mstore\n        /* \"#utility.yul\":176:180   */\n      0x24\n        /* \"#utility.yul\":173:174   */\n      0x00\n        /* \"#utility.yul\":166:181   */\n      revert\n        /* \"#utility.yul\":193:270   */\n    tag_46:\n        /* \"#utility.yul\":230:237   */\n      0x00\n        /* \"#utility.yul\":259:264   */\n      dup2\n        /* \"#utility.yul\":248:264   */\n      swap1\n      pop\n        /* \"#utility.yul\":193:270   */\n      swap2\n      swap1\n      pop\n      jump\t// out\n        /* \"#utility.yul\":276:447   */\n    tag_11:\n        /* \"#utility.yul\":315:318   */\n      0x00\n        /* \"#utility.yul\":338:362   */\n      tag_64\n        /* \"#utility.yul\":356:361   */\n      dup3\n        /* \"#utility.yul\":338:362   */\n      tag_46\n      jump\t// in\n    tag_64:\n        /* \"#utility.yul\":329:362   */\n      swap2\n      pop\n        /* \"#utility.yul\":384:388   */\n      0x00\n        /* \"#utility.yul\":377:382   */\n      dup3\n        /* \"#utility.yul\":374:389   */\n      sub\n        /* \"#utility.yul\":371:412   */\n      tag_65\n      jumpi\n        /* \"#utility.yul\":392:410   */\n      tag_66\n      tag_45\n      jump\t// in\n    tag_66:\n        /* \"#utility.yul\":371:412   */\n    tag_65:\n        /* \"#utility.yul\":439:440   */\n      0x01\n        /* \"#utility.yul\":432:437   */\n      dup3\n        /* \"#utility.yul\":428:441   */\n      sub\n        /* \"#utility.yul\":421:441   */\n      swap1\n      pop\n        /* \"#utility.yul\":276:447   */\n      swap2\n      swap1\n      pop\n      jump\t// out\n        /* \"#utility.yul\":453:686   */\n    tag_15:\n        /* \"#utility.yul\":492:495   */\n      0x00\n        /* \"#utility.yul\":515:539   */\n      tag_68\n        /* \"#utility.yul\":533:538   */\n      dup3\n        /* \"#utility.yul\":515:539   */\n      tag_46\n      jump\t// in\n    tag_68:\n        /* \"#utility.yul\":506:539   */\n      swap2\n      pop\n        /* \"#utility.yul\":561:627   */\n      0xffffffffffffffffffffffffffffffffffffffffffffffffffffffffffffffff\n        /* \"#utility.yul\":554:559   */\n      dup3\n        /* \"#utility.yul\":551:628   */\n      sub\n        /* \"#utility.yul\":548:651   */\n      tag_69\n      jumpi\n        /* \"#utility.yul\":631:649   */\n      tag_70\n      tag_45\n      jump\t// in\n    tag_70:\n        /* \"#utility.yul\":548:651   */\n    tag_69:\n        /* \"#utility.yul\":678:679   */\n      0x01\n        /* \"#utility.yul\":671:676   */\n      dup3\n        /* \"#utility.yul\":667:680   */\n      add\n        /* \"#utility.yul\":660:680   */\n      swap1\n      pop\n        /* \"#utility.yul\":453:686   */\n      swap2\n      swap1\n      pop\n      jump\t// out\n        /* \"#utility.yul\":692:810   */\n    tag_47:\n        /* \"#utility.yul\":779:803   */\n      tag_72\n        /* \"#utility.yul\":797:802   */\n      dup2\n        /* \"#utility.yul\":779:803   */\n      tag_46\n      jump\t// in\n    tag_72:\n        /* \"#utility.yul\":774:777   */\n      dup3\n        /* \"#utility.yul\":767:804   */\n      mstore\n        /* \"#utility.yul\":692:810   */\n      pop\n      pop\n      jump\t// out\n        /* \"#utility.yul\":816:1038   */\n    tag_20:\n        /* \"#utility.yul\":909:913   */\n      0x00\n        /* \"#utility.yul\":947:949   */\n      0x20\n        /* \"#utility.yul\":936:945   */\n      dup3\n        /* \"#utility.yul\":932:950   */\n      add\n        /* \"#utility.yul\":924:950   */\n      swap1\n      pop\n        /* \"#utility.yul\":960:1031   */\n      tag_74\n        /* \"#utility.yul\":1028:1029   */\n      0x00\n        /* \"#utility.yul\":1017:1026   */\n      dup4\n        /* \"#utility.yul\":1013:1030   */\n      add\n        /* \"#utility.yul\":1004:1010   */\n      dup5\n        /* \"#utility.yul\":960:1031   */\n      tag_47\n      jump\t// in\n    tag_74:\n        /* \"#utility.yul\":816:1038   */\n      swap3\n      swap2\n      pop\n      pop\n      jump\t// out\n        /* \"#utility.yul\":1125:1242   */\n    tag_49:\n        /* \"#utility.yul\":1234:1235   */\n      0x00\n        /* \"#utility.yul\":1231:1232   */\n      dup1\n        /* \"#utility.yul\":1224:1236   */\n      revert\n        /* \"#utility.yul\":1371:1497   */\n    tag_51:\n        /* \"#utility.yul\":1408:1415   */\n      0x00\n        /* \"#utility.yul\":1448:1490   */\n      0xffffffffffffffffffffffffffffffffffffffff\n        /* \"#utility.yul\":1441:1446   */\n      dup3\n        /* \"#utility.yul\":1437:1491   */\n      and\n        /* \"#utility.yul\":1426:1491   */\n      swap1\n      pop\n        /* \"#utility.yul\":1371:1497   */\n      swap2\n      swap1\n      pop\n      jump\t// out\n        /* \"#utility.yul\":1503:1599   */\n    tag_52:\n        /* \"#utility.yul\":1540:1547   */\n      0x00\n        /* \"#utility.yul\":1569:1593   */\n      tag_80\n        /* \"#utility.yul\":1587:1592   */\n      dup3\n        /* \"#utility.yul\":1569:1593   */\n      tag_51\n      jump\t// in\n    tag_80:\n        /* \"#utility.yul\":1558:1593   */\n      swap1\n      pop\n        /* \"#utility.yul\":1503:1599   */\n      swap2\n      swap1\n      pop\n      jump\t// out\n        /* \"#utility.yul\":1605:1727   */\n    tag_53:\n        /* \"#utility.yul\":1678:1702   */\n      tag_82\n        /* \"#utility.yul\":1696:1701   */\n      dup2\n        /* \"#utility.yul\":1678:1702   */\n      tag_52\n      jump\t// in\n    tag_82:\n        /* \"#utility.yul\":1671:1676   */\n      dup2\n        /* \"#utility.yul\":1668:1703   */\n      eq\n        /* \"#utility.yul\":1658:1721   */\n      tag_83\n      jumpi\n        /* \"#utility.yul\":1717:1718   */\n      0x00\n        /* \"#utility.yul\":1714:1715   */\n      dup1\n        /* \"#utility.yul\":1707:1719   */\n      revert\n        /* \"#utility.yul\":1658:1721   */\n    tag_83:\n        /* \"#utility.yul\":1605:1727   */\n      pop\n      jump\t// out\n        /* \"#utility.yul\":1733:1872   */\n    tag_54:\n        /* \"#utility.yul\":1779:1784   */\n      0x00\n        /* \"#utility.yul\":1817:1823   */\n      dup2\n        /* \"#utility.yul\":1804:1824   */\n      calldataload\n        /* \"#utility.yul\":1795:1824   */\n      swap1\n      pop\n        /* \"#utility.yul\":1833:1866   */\n      tag_85\n        /* \"#utility.yul\":1860:1865   */\n      dup2\n        /* \"#utility.yul\":1833:1866   */\n      tag_53\n      jump\t// in\n    tag_85:\n        /* \"#utility.yul\":1733:1872   */\n      swap3\n      swap2\n      pop\n      pop\n      jump\t// out\n        /* \"#utility.yul\":1878:2207   */\n    tag_24:\n        /* \"#utility.yul\":1937:1943   */\n      0x00\n        /* \"#utility.yul\":1986:1988   */\n      0x20\n        /* \"#utility.yul\":1974:1983   */\n      dup3\n        /* \"#utility.yul\":1965:1972   */\n      dup5\n        /* \"#utility.yul\":1961:1984   */\n      sub\n        /* \"#utility.yul\":1957:1989   */\n      slt\n        /* \"#utility.yul\":1954:2073   */\n      iszero\n      tag_87\n      jumpi\n        /* \"#utility.yul\":1992:2071   */\n      tag_88\n      tag_49\n      jump\t// in\n    tag_88:\n        /* \"#utility.yul\":1954:2073   */\n    tag_87:\n        /* \"#utility.yul\":2112:2113   */\n      0x00\n        /* \"#utility.yul\":2137:2190   */\n      tag_89\n        /* \"#utility.yul\":2182:2189   */\n      dup5\n        /* \"#utility.yul\":2173:2179   */\n      dup3\n        /* \"#utility.yul\":2162:2171   */\n      dup6\n        /* \"#utility.yul\":2158:2180   */\n      add\n        /* \"#utility.yul\":2137:2190   */\n      tag_54\n      jump\t// in\n    tag_89:\n        /* \"#utility.yul\":2127:2190   */\n      swap2\n      pop\n        /* \"#utility.yul\":2083:2200   */\n      pop\n        /* \"#utility.yul\":1878:2207   */\n      swap3\n      swap2\n      pop\n      pop\n      jump\t// out\n        /* \"#utility.yul\":2213:2303   */\n    tag_55:\n        /* \"#utility.yul\":2247:2254   */\n      0x00\n        /* \"#utility.yul\":2290:2295   */\n      dup2\n        /* \"#utility.yul\":2283:2296   */\n      iszero\n        /* \"#utility.yul\":2276:2297   */\n      iszero\n        /* \"#utility.yul\":2265:2297   */\n      swap1\n      pop\n        /* \"#utility.yul\":2213:2303   */\n      swap2\n      swap1\n      pop\n      jump\t// out\n        /* \"#utility.yul\":2309:2418   */\n    tag_56:\n        /* \"#utility.yul\":2390:2411   */\n      tag_92\n        /* \"#utility.yul\":2405:2410   */\n      dup2\n        /* \"#utility.yul\":2390:2411   */\n      tag_55\n      jump\t// in\n    tag_92:\n        /* \"#utility.yul\":2385:2388   */\n      dup3\n        /* \"#utility.yul\":2378:2412   */\n      mstore\n        /* \"#utility.yul\":2309:2418   */\n      pop\n      pop\n      jump\t// out\n        /* \"#utility.yul\":2424:2634   */\n    tag_31:\n        /* \"#utility.yul\":2511:2515   */\n      0x00\n        /* \"#utility.yul\":2549:2551   */\n      0x20\n        /* \"#utility.yul\":2538:2547   */\n      dup3\n        /* \"#utility.yul\":2534:2552   */\n      add\n        /* \"#utility.yul\":2526:2552   */\n      swap1\n      pop\n        /* \"#utility.yul\":2562:2627   */\n      tag_94\n        /* \"#utility.yul\":2624:2625   */\n      0x00\n        /* \"#utility.yul\":2613:2622   */\n      dup4\n        /* \"#utility.yul\":2609:2626   */\n      add\n        /* \"#utility.yul\":2600:2606   */\n      dup5\n        /* \"#utility.yul\":2562:2627   */\n      tag_56\n      jump\t// in\n    tag_94:\n        /* \"#utility.yul\":2424:2634   */\n      swap3\n      swap2\n      pop\n      pop\n      jump\t// out\n        /* \"#utility.yul\":2640:2787   */\n    tag_57:\n        /* \"#utility.yul\":2741:2752   */\n      0x00\n        /* \"#utility.yul\":2778:2781   */\n      dup2\n        /* \"#utility.yul\":2763:2781   */\n      swap1\n      pop\n        /* \"#utility.yul\":2640:2787   */\n      swap3\n      swap2\n      pop\n      pop\n      jump\t// out\n        /* \"#utility.yul\":2793:2907   */\n    tag_58:\n      pop\n      jump\t// out\n        /* \"#utility.yul\":2913:3311   */\n    tag_59:\n        /* \"#utility.yul\":3072:3075   */\n      0x00\n        /* \"#utility.yul\":3093:3176   */\n      tag_98\n        /* \"#utility.yul\":3174:3175   */\n      0x00\n        /* \"#utility.yul\":3169:3172   */\n      dup4\n        /* \"#utility.yul\":3093:3176   */\n      tag_57\n      jump\t// in\n    tag_98:\n        /* \"#utility.yul\":3086:3176   */\n      swap2\n      pop\n        /* \"#utility.yul\":3185:3278   */\n      tag_99\n        /* \"#utility.yul\":3274:3277   */\n      dup3\n        /* \"#utility.yul\":3185:3278   */\n      tag_58\n      jump\t// in\n    tag_99:\n        /* \"#utility.yul\":3303:3304   */\n      0x00\n        /* \"#utility.yul\":3298:3301   */\n      dup3\n        /* \"#utility.yul\":3294:3305   */\n      add\n        /* \"#utility.yul\":3287:3305   */\n      swap1\n      pop\n        /* \"#utility.yul\":2913:3311   */\n      swap2\n      swap1\n      pop\n      jump\t// out\n        /* \"#utility.yul\":3317:3696   */\n    tag_40:\n        /* \"#utility.yul\":3501:3504   */\n      0x00\n        /* \"#utility.yul\":3523:3670   */\n      tag_101\n        /* \"#utility.yul\":3666:3669   */\n      dup3\n        /* \"#utility.yul\":3523:3670   */\n      tag_59\n      jump\t// in\n    tag_101:\n        /* \"#utility.yul\":3516:3670   */\n      swap2\n      pop\n        /* \"#utility.yul\":3687:3690   */\n      dup2\n        /* \"#utility.yul\":3680:3690   */\n      swap1\n      pop\n        /* \"#utility.yul\":3317:3696   */\n      swap2\n      swap1\n      pop\n      jump\t// out\n\n    auxdata: 0xa26469706673582212206601b5504f57081ce18ac21157e29c09e3d22dbacebc1f7e358824d2c67a4cdb64736f6c634300080f0033\n}\n",
				"bytecode": {
					"linkReferences": {},
					"object": "608060405234801561001057600080fd5b5061047c806100206000396000f3fe60806040526004361061004e5760003560e01c80631ee282c71461008457806327e235e3146100af5780633ccfd60b146100ec578063724ba2c114610117578063d0e30db0146101425761006c565b3661006c57600160008154809291906100669061029f565b91905055005b60008081548092919061007e906102c8565b91905055005b34801561009057600080fd5b5061009961014c565b6040516100a6919061031f565b60405180910390f35b3480156100bb57600080fd5b506100d660048036038101906100d1919061039d565b610152565b6040516100e3919061031f565b60405180910390f35b3480156100f857600080fd5b5061010161016a565b60405161010e91906103e5565b60405180910390f35b34801561012357600080fd5b5061012c61021a565b604051610139919061031f565b60405180910390f35b61014a610220565b005b60005481565b60026020528060005260406000206000915090505481565b60003373ffffffffffffffffffffffffffffffffffffffff16600260003373ffffffffffffffffffffffffffffffffffffffff1673ffffffffffffffffffffffffffffffffffffffff168152602001908152602001600020546040516101cf90610431565b60006040518083038185875af1925050503d806000811461020c576040519150601f19603f3d011682016040523d82523d6000602084013e610211565b606091505b50508091505090565b60015481565b34600260003373ffffffffffffffffffffffffffffffffffffffff1673ffffffffffffffffffffffffffffffffffffffff16815260200190815260200160002081905550565b7f4e487b7100000000000000000000000000000000000000000000000000000000600052601160045260246000fd5b6000819050919050565b60006102aa82610295565b9150600082036102bd576102bc610266565b5b600182039050919050565b60006102d382610295565b91507fffffffffffffffffffffffffffffffffffffffffffffffffffffffffffffffff820361030557610304610266565b5b600182019050919050565b61031981610295565b82525050565b60006020820190506103346000830184610310565b92915050565b600080fd5b600073ffffffffffffffffffffffffffffffffffffffff82169050919050565b600061036a8261033f565b9050919050565b61037a8161035f565b811461038557600080fd5b50565b60008135905061039781610371565b92915050565b6000602082840312156103b3576103b261033a565b5b60006103c184828501610388565b91505092915050565b60008115159050919050565b6103df816103ca565b82525050565b60006020820190506103fa60008301846103d6565b92915050565b600081905092915050565b50565b600061041b600083610400565b91506104268261040b565b600082019050919050565b600061043c8261040e565b915081905091905056fea26469706673582212206601b5504f57081ce18ac21157e29c09e3d22dbacebc1f7e358824d2c67a4cdb64736f6c634300080f0033",
					"opcodes": "PUSH1 0x80 PUSH1 0x40 MSTORE CALLVALUE DUP1 ISZERO PUSH2 0x10 JUMPI PUSH1 0x0 DUP1 REVERT JUMPDEST POP PUSH2 0x47C DUP1 PUSH2 0x20 PUSH1 0x0 CODECOPY PUSH1 0x0 RETURN INVALID PUSH1 0x80 PUSH1 0x40 MSTORE PUSH1 0x4 CALLDATASIZE LT PUSH2 0x4E JUMPI PUSH1 0x0 CALLDATALOAD PUSH1 0xE0 SHR DUP1 PUSH4 0x1EE282C7 EQ PUSH2 0x84 JUMPI DUP1 PUSH4 0x27E235E3 EQ PUSH2 0xAF JUMPI DUP1 PUSH4 0x3CCFD60B EQ PUSH2 0xEC JUMPI DUP1 PUSH4 0x724BA2C1 EQ PUSH2 0x117 JUMPI DUP1 PUSH4 0xD0E30DB0 EQ PUSH2 0x142 JUMPI PUSH2 0x6C JUMP JUMPDEST CALLDATASIZE PUSH2 0x6C JUMPI PUSH1 0x1 PUSH1 0x0 DUP2 SLOAD DUP1 SWAP3 SWAP2 SWAP1 PUSH2 0x66 SWAP1 PUSH2 0x29F JUMP JUMPDEST SWAP2 SWAP1 POP SSTORE STOP JUMPDEST PUSH1 0x0 DUP1 DUP2 SLOAD DUP1 SWAP3 SWAP2 SWAP1 PUSH2 0x7E SWAP1 PUSH2 0x2C8 JUMP JUMPDEST SWAP2 SWAP1 POP SSTORE STOP JUMPDEST CALLVALUE DUP1 ISZERO PUSH2 0x90 JUMPI PUSH1 0x0 DUP1 REVERT JUMPDEST POP PUSH2 0x99 PUSH2 0x14C JUMP JUMPDEST PUSH1 0x40 MLOAD PUSH2 0xA6 SWAP2 SWAP1 PUSH2 0x31F JUMP JUMPDEST PUSH1 0x40 MLOAD DUP1 SWAP2 SUB SWAP1 RETURN JUMPDEST CALLVALUE DUP1 ISZERO PUSH2 0xBB JUMPI PUSH1 0x0 DUP1 REVERT JUMPDEST POP PUSH2 0xD6 PUSH1 0x4 DUP1 CALLDATASIZE SUB DUP2 ADD SWAP1 PUSH2 0xD1 SWAP2 SWAP1 PUSH2 0x39D JUMP JUMPDEST PUSH2 0x152 JUMP JUMPDEST PUSH1 0x40 MLOAD PUSH2 0xE3 SWAP2 SWAP1 PUSH2 0x31F JUMP JUMPDEST PUSH1 0x40 MLOAD DUP1 SWAP2 SUB SWAP1 RETURN JUMPDEST CALLVALUE DUP1 ISZERO PUSH2 0xF8 JUMPI PUSH1 0x0 DUP1 REVERT JUMPDEST POP PUSH2 0x101 PUSH2 0x16A JUMP JUMPDEST PUSH1 0x40 MLOAD PUSH2 0x10E SWAP2 SWAP1 PUSH2 0x3E5 JUMP JUMPDEST PUSH1 0x40 MLOAD DUP1 SWAP2 SUB SWAP1 RETURN JUMPDEST CALLVALUE DUP1 ISZERO PUSH2 0x123 JUMPI PUSH1 0x0 DUP1 REVERT JUMPDEST POP PUSH2 0x12C PUSH2 0x21A JUMP JUMPDEST PUSH1 0x40 MLOAD PUSH2 0x139 SWAP2 SWAP1 PUSH2 0x31F JUMP JUMPDEST PUSH1 0x40 MLOAD DUP1 SWAP2 SUB SWAP1 RETURN JUMPDEST PUSH2 0x14A PUSH2 0x220 JUMP JUMPDEST STOP JUMPDEST PUSH1 0x0 SLOAD DUP2 JUMP JUMPDEST PUSH1 0x2 PUSH1 0x20 MSTORE DUP1 PUSH1 0x0 MSTORE PUSH1 0x40 PUSH1 0x0 KECCAK256 PUSH1 0x0 SWAP2 POP SWAP1 POP SLOAD DUP2 JUMP JUMPDEST PUSH1 0x0 CALLER PUSH20 0xFFFFFFFFFFFFFFFFFFFFFFFFFFFFFFFFFFFFFFFF AND PUSH1 0x2 PUSH1 0x0 CALLER PUSH20 0xFFFFFFFFFFFFFFFFFFFFFFFFFFFFFFFFFFFFFFFF AND PUSH20 0xFFFFFFFFFFFFFFFFFFFFFFFFFFFFFFFFFFFFFFFF AND DUP2 MSTORE PUSH1 0x20 ADD SWAP1 DUP2 MSTORE PUSH1 0x20 ADD PUSH1 0x0 KECCAK256 SLOAD PUSH1 0x40 MLOAD PUSH2 0x1CF SWAP1 PUSH2 0x431 JUMP JUMPDEST PUSH1 0x0 PUSH1 0x40 MLOAD DUP1 DUP4 SUB DUP2 DUP6 DUP8 GAS CALL SWAP3 POP POP POP RETURNDATASIZE DUP1 PUSH1 0x0 DUP2 EQ PUSH2 0x20C JUMPI PUSH1 0x40 MLOAD SWAP2 POP PUSH1 0x1F NOT PUSH1 0x3F RETURNDATASIZE ADD AND DUP3 ADD PUSH1 0x40 MSTORE RETURNDATASIZE DUP3 MSTORE RETURNDATASIZE PUSH1 0x0 PUSH1 0x20 DUP5 ADD RETURNDATACOPY PUSH2 0x211 JUMP JUMPDEST PUSH1 0x60 SWAP2 POP JUMPDEST POP POP DUP1 SWAP2 POP POP SWAP1 JUMP JUMPDEST PUSH1 0x1 SLOAD DUP2 JUMP JUMPDEST CALLVALUE PUSH1 0x2 PUSH1 0x0 CALLER PUSH20 0xFFFFFFFFFFFFFFFFFFFFFFFFFFFFFFFFFFFFFFFF AND PUSH20 0xFFFFFFFFFFFFFFFFFFFFFFFFFFFFFFFFFFFFFFFF AND DUP2 MSTORE PUSH1 0x20 ADD SWAP1 DUP2 MSTORE PUSH1 0x20 ADD PUSH1 0x0 KECCAK256 DUP2 SWAP1 SSTORE POP JUMP JUMPDEST PUSH32 0x4E487B7100000000000000000000000000000000000000000000000000000000 PUSH1 0x0 MSTORE PUSH1 0x11 PUSH1 0x4 MSTORE PUSH1 0x24 PUSH1 0x0 REVERT JUMPDEST PUSH1 0x0 DUP2 SWAP1 POP SWAP2 SWAP1 POP JUMP JUMPDEST PUSH1 0x0 PUSH2 0x2AA DUP3 PUSH2 0x295 JUMP JUMPDEST SWAP2 POP PUSH1 0x0 DUP3 SUB PUSH2 0x2BD JUMPI PUSH2 0x2BC PUSH2 0x266 JUMP JUMPDEST JUMPDEST PUSH1 0x1 DUP3 SUB SWAP1 POP SWAP2 SWAP1 POP JUMP JUMPDEST PUSH1 0x0 PUSH2 0x2D3 DUP3 PUSH2 0x295 JUMP JUMPDEST SWAP2 POP PUSH32 0xFFFFFFFFFFFFFFFFFFFFFFFFFFFFFFFFFFFFFFFFFFFFFFFFFFFFFFFFFFFFFFFF DUP3 SUB PUSH2 0x305 JUMPI PUSH2 0x304 PUSH2 0x266 JUMP JUMPDEST JUMPDEST PUSH1 0x1 DUP3 ADD SWAP1 POP SWAP2 SWAP1 POP JUMP JUMPDEST PUSH2 0x319 DUP2 PUSH2 0x295 JUMP JUMPDEST DUP3 MSTORE POP POP JUMP JUMPDEST PUSH1 0x0 PUSH1 0x20 DUP3 ADD SWAP1 POP PUSH2 0x334 PUSH1 0x0 DUP4 ADD DUP5 PUSH2 0x310 JUMP JUMPDEST SWAP3 SWAP2 POP POP JUMP JUMPDEST PUSH1 0x0 DUP1 REVERT JUMPDEST PUSH1 0x0 PUSH20 0xFFFFFFFFFFFFFFFFFFFFFFFFFFFFFFFFFFFFFFFF DUP3 AND SWAP1 POP SWAP2 SWAP1 POP JUMP JUMPDEST PUSH1 0x0 PUSH2 0x36A DUP3 PUSH2 0x33F JUMP JUMPDEST SWAP1 POP SWAP2 SWAP1 POP JUMP JUMPDEST PUSH2 0x37A DUP2 PUSH2 0x35F JUMP JUMPDEST DUP2 EQ PUSH2 0x385 JUMPI PUSH1 0x0 DUP1 REVERT JUMPDEST POP JUMP JUMPDEST PUSH1 0x0 DUP2 CALLDATALOAD SWAP1 POP PUSH2 0x397 DUP2 PUSH2 0x371 JUMP JUMPDEST SWAP3 SWAP2 POP POP JUMP JUMPDEST PUSH1 0x0 PUSH1 0x20 DUP3 DUP5 SUB SLT ISZERO PUSH2 0x3B3 JUMPI PUSH2 0x3B2 PUSH2 0x33A JUMP JUMPDEST JUMPDEST PUSH1 0x0 PUSH2 0x3C1 DUP5 DUP3 DUP6 ADD PUSH2 0x388 JUMP JUMPDEST SWAP2 POP POP SWAP3 SWAP2 POP POP JUMP JUMPDEST PUSH1 0x0 DUP2 ISZERO ISZERO SWAP1 POP SWAP2 SWAP1 POP JUMP JUMPDEST PUSH2 0x3DF DUP2 PUSH2 0x3CA JUMP JUMPDEST DUP3 MSTORE POP POP JUMP JUMPDEST PUSH1 0x0 PUSH1 0x20 DUP3 ADD SWAP1 POP PUSH2 0x3FA PUSH1 0x0 DUP4 ADD DUP5 PUSH2 0x3D6 JUMP JUMPDEST SWAP3 SWAP2 POP POP JUMP JUMPDEST PUSH1 0x0 DUP2 SWAP1 POP SWAP3 SWAP2 POP POP JUMP JUMPDEST POP JUMP JUMPDEST PUSH1 0x0 PUSH2 0x41B PUSH1 0x0 DUP4 PUSH2 0x400 JUMP JUMPDEST SWAP2 POP PUSH2 0x426 DUP3 PUSH2 0x40B JUMP JUMPDEST PUSH1 0x0 DUP3 ADD SWAP1 POP SWAP2 SWAP1 POP JUMP JUMPDEST PUSH1 0x0 PUSH2 0x43C DUP3 PUSH2 0x40E JUMP JUMPDEST SWAP2 POP DUP2 SWAP1 POP SWAP2 SWAP1 POP JUMP INVALID LOG2 PUSH5 0x6970667358 0x22 SLT KECCAK256 PUSH7 0x1B5504F57081C 0xE1 DUP11 0xC2 GT JUMPI 0xE2 SWAP13 MULMOD 0xE3 0xD2 0x2D 0xBA 0xCE 0xBC 0x1F PUSH31 0x358824D2C67A4CDB64736F6C634300080F0033000000000000000000000000 "
				},
				"gasEstimates": {
					"creation": {
						"codeDepositCost": "229600",
						"executionCost": "269",
						"totalCost": "229869"
					},
					"external": {
						"": "24528",
						"balances(address)": "2814",
						"countFallback()": "2407",
						"countReceive()": "2473",
						"deposit()": "22388",
						"withdraw()": "infinite"
					}
				},
				"methodIdentifiers": {
					"balances(address)": "27e235e3",
					"countFallback()": "1ee282c7",
					"countReceive()": "724ba2c1",
					"deposit()": "d0e30db0",
					"withdraw()": "3ccfd60b"
				}
			},
			"storageLayout": {
				"storage": [
					{
						"astId": 3,
						"contract": "contracts/TestExploit.sol:TestDeployment",
						"label": "countFallback",
						"offset": 0,
						"slot": "0",
						"type": "t_uint256"
					},
					{
						"astId": 5,
						"contract": "contracts/TestExploit.sol:TestDeployment",
						"label": "countReceive",
						"offset": 0,
						"slot": "1",
						"type": "t_uint256"
					},
					{
						"astId": 9,
						"contract": "contracts/TestExploit.sol:TestDeployment",
						"label": "balances",
						"offset": 0,
						"slot": "2",
						"type": "t_mapping(t_address,t_uint256)"
					}
				],
				"types": {
					"t_address": {
						"encoding": "inplace",
						"label": "address",
						"numberOfBytes": "20"
					},
					"t_mapping(t_address,t_uint256)": {
						"encoding": "mapping",
						"key": "t_address",
						"label": "mapping(address => uint256)",
						"numberOfBytes": "32",
						"value": "t_uint256"
					},
					"t_uint256": {
						"encoding": "inplace",
						"label": "uint256",
						"numberOfBytes": "32"
					}
				}
			},
			"userdoc": {
				"kind": "user",
				"methods": {},
				"version": 1
			}
		}
	}
}