{
	"contracts/Clase2.sol": {
		"Testing": {
			"abi": [
				{
					"inputs": [],
					"stateMutability": "nonpayable",
					"type": "constructor"
				},
				{
					"inputs": [],
					"name": "a",
					"outputs": [
						{
							"internalType": "uint256",
							"name": "",
							"type": "uint256"
						}
					],
					"stateMutability": "view",
					"type": "function"
				},
				{
					"inputs": [],
					"name": "age",
					"outputs": [
						{
							"internalType": "uint256",
							"name": "",
							"type": "uint256"
						}
					],
					"stateMutability": "view",
					"type": "function"
				},
				{
					"inputs": [
						{
							"internalType": "uint256",
							"name": "_age",
							"type": "uint256"
						}
					],
					"name": "setAge",
					"outputs": [],
					"stateMutability": "nonpayable",
					"type": "function"
				}
			],
			"devdoc": {
				"kind": "dev",
				"methods": {},
				"version": 1
			},
			"evm": {
				"assembly": "    /* \"contracts/Clase2.sol\":66:445  contract Testing {... */\n  mstore(0x40, 0x80)\n    /* \"contracts/Clase2.sol\":159:208  constructor(){... */\n  callvalue\n  dup1\n  iszero\n  tag_1\n  jumpi\n  0x00\n  dup1\n  revert\ntag_1:\n  pop\n    /* \"contracts/Clase2.sol\":190:200  msg.sender */\n  caller\n    /* \"contracts/Clase2.sol\":183:187  addr */\n  0x00\n  dup1\n    /* \"contracts/Clase2.sol\":183:200  addr = msg.sender */\n  0x0100\n  exp\n  dup2\n  sload\n  dup2\n  0xffffffffffffffffffffffffffffffffffffffff\n  mul\n  not\n  and\n  swap1\n  dup4\n  0xffffffffffffffffffffffffffffffffffffffff\n  and\n  mul\n  or\n  swap1\n  sstore\n  pop\n    /* \"contracts/Clase2.sol\":66:445  contract Testing {... */\n  dataSize(sub_0)\n  dup1\n  dataOffset(sub_0)\n  0x00\n  codecopy\n  0x00\n  return\nstop\n\nsub_0: assembly {\n        /* \"contracts/Clase2.sol\":66:445  contract Testing {... */\n      mstore(0x40, 0x80)\n      callvalue\n      dup1\n      iszero\n      tag_1\n      jumpi\n      0x00\n      dup1\n      revert\n    tag_1:\n      pop\n      jumpi(tag_2, lt(calldatasize, 0x04))\n      shr(0xe0, calldataload(0x00))\n      dup1\n      0x0dbe671f\n      eq\n      tag_3\n      jumpi\n      dup1\n      0x262a9dff\n      eq\n      tag_4\n      jumpi\n      dup1\n      0xd5dcf127\n      eq\n      tag_5\n      jumpi\n    tag_2:\n      0x00\n      dup1\n      revert\n        /* \"contracts/Clase2.sol\":134:150  uint256 public a */\n    tag_3:\n      tag_6\n      tag_7\n      jump\t// in\n    tag_6:\n      mload(0x40)\n      tag_8\n      swap2\n      swap1\n      tag_9\n      jump\t// in\n    tag_8:\n      mload(0x40)\n      dup1\n      swap2\n      sub\n      swap1\n      return\n        /* \"contracts/Clase2.sol\":109:127  uint256 public age */\n    tag_4:\n      tag_10\n      tag_11\n      jump\t// in\n    tag_10:\n      mload(0x40)\n      tag_12\n      swap2\n      swap1\n      tag_9\n      jump\t// in\n    tag_12:\n      mload(0x40)\n      dup1\n      swap2\n      sub\n      swap1\n      return\n        /* \"contracts/Clase2.sol\":216:440  function setAge(uint256 _age) external {... */\n    tag_5:\n      tag_13\n      0x04\n      dup1\n      calldatasize\n      sub\n      dup2\n      add\n      swap1\n      tag_14\n      swap2\n      swap1\n      tag_15\n      jump\t// in\n    tag_14:\n      tag_16\n      jump\t// in\n    tag_13:\n      stop\n        /* \"contracts/Clase2.sol\":134:150  uint256 public a */\n    tag_7:\n      sload(0x02)\n      dup2\n      jump\t// out\n        /* \"contracts/Clase2.sol\":109:127  uint256 public age */\n    tag_11:\n      sload(0x01)\n      dup2\n      jump\t// out\n        /* \"contracts/Clase2.sol\":216:440  function setAge(uint256 _age) external {... */\n    tag_16:\n        /* \"contracts/Clase2.sol\":270:274  _age */\n      dup1\n        /* \"contracts/Clase2.sol\":266:267  a */\n      0x02\n        /* \"contracts/Clase2.sol\":266:274  a = _age */\n      dup2\n      swap1\n      sstore\n      pop\n        /* \"contracts/Clase2.sol\":354:358  addr */\n      0x00\n      dup1\n      sload\n      swap1\n      0x0100\n      exp\n      swap1\n      div\n      0xffffffffffffffffffffffffffffffffffffffff\n      and\n        /* \"contracts/Clase2.sol\":340:358  msg.sender == addr */\n      0xffffffffffffffffffffffffffffffffffffffff\n      and\n        /* \"contracts/Clase2.sol\":340:350  msg.sender */\n      caller\n        /* \"contracts/Clase2.sol\":340:358  msg.sender == addr */\n      0xffffffffffffffffffffffffffffffffffffffff\n      and\n      eq\n        /* \"contracts/Clase2.sol\":332:411  require(msg.sender == addr, \"Solo puede setear el valor el owner del contrato\") */\n      tag_18\n      jumpi\n      mload(0x40)\n      0x08c379a000000000000000000000000000000000000000000000000000000000\n      dup2\n      mstore\n      0x04\n      add\n      tag_19\n      swap1\n      tag_20\n      jump\t// in\n    tag_19:\n      mload(0x40)\n      dup1\n      swap2\n      sub\n      swap1\n      revert\n    tag_18:\n        /* \"contracts/Clase2.sol\":428:432  _age */\n      dup1\n        /* \"contracts/Clase2.sol\":422:425  age */\n      0x01\n        /* \"contracts/Clase2.sol\":422:432  age = _age */\n      dup2\n      swap1\n      sstore\n      pop\n        /* \"contracts/Clase2.sol\":216:440  function setAge(uint256 _age) external {... */\n      pop\n      jump\t// out\n        /* \"#utility.yul\":7:84   */\n    tag_21:\n        /* \"#utility.yul\":44:51   */\n      0x00\n        /* \"#utility.yul\":73:78   */\n      dup2\n        /* \"#utility.yul\":62:78   */\n      swap1\n      pop\n        /* \"#utility.yul\":7:84   */\n      swap2\n      swap1\n      pop\n      jump\t// out\n        /* \"#utility.yul\":90:208   */\n    tag_22:\n        /* \"#utility.yul\":177:201   */\n      tag_34\n        /* \"#utility.yul\":195:200   */\n      dup2\n        /* \"#utility.yul\":177:201   */\n      tag_21\n      jump\t// in\n    tag_34:\n        /* \"#utility.yul\":172:175   */\n      dup3\n        /* \"#utility.yul\":165:202   */\n      mstore\n        /* \"#utility.yul\":90:208   */\n      pop\n      pop\n      jump\t// out\n        /* \"#utility.yul\":214:436   */\n    tag_9:\n        /* \"#utility.yul\":307:311   */\n      0x00\n        /* \"#utility.yul\":345:347   */\n      0x20\n        /* \"#utility.yul\":334:343   */\n      dup3\n        /* \"#utility.yul\":330:348   */\n      add\n        /* \"#utility.yul\":322:348   */\n      swap1\n      pop\n        /* \"#utility.yul\":358:429   */\n      tag_36\n        /* \"#utility.yul\":426:427   */\n      0x00\n        /* \"#utility.yul\":415:424   */\n      dup4\n        /* \"#utility.yul\":411:428   */\n      add\n        /* \"#utility.yul\":402:408   */\n      dup5\n        /* \"#utility.yul\":358:429   */\n      tag_22\n      jump\t// in\n    tag_36:\n        /* \"#utility.yul\":214:436   */\n      swap3\n      swap2\n      pop\n      pop\n      jump\t// out\n        /* \"#utility.yul\":523:640   */\n    tag_24:\n        /* \"#utility.yul\":632:633   */\n      0x00\n        /* \"#utility.yul\":629:630   */\n      dup1\n        /* \"#utility.yul\":622:634   */\n      revert\n        /* \"#utility.yul\":769:891   */\n    tag_26:\n        /* \"#utility.yul\":842:866   */\n      tag_41\n        /* \"#utility.yul\":860:865   */\n      dup2\n        /* \"#utility.yul\":842:866   */\n      tag_21\n      jump\t// in\n    tag_41:\n        /* \"#utility.yul\":835:840   */\n      dup2\n        /* \"#utility.yul\":832:867   */\n      eq\n        /* \"#utility.yul\":822:885   */\n      tag_42\n      jumpi\n        /* \"#utility.yul\":881:882   */\n      0x00\n        /* \"#utility.yul\":878:879   */\n      dup1\n        /* \"#utility.yul\":871:883   */\n      revert\n        /* \"#utility.yul\":822:885   */\n    tag_42:\n        /* \"#utility.yul\":769:891   */\n      pop\n      jump\t// out\n        /* \"#utility.yul\":897:1036   */\n    tag_27:\n        /* \"#utility.yul\":943:948   */\n      0x00\n        /* \"#utility.yul\":981:987   */\n      dup2\n        /* \"#utility.yul\":968:988   */\n      calldataload\n        /* \"#utility.yul\":959:988   */\n      swap1\n      pop\n        /* \"#utility.yul\":997:1030   */\n      tag_44\n        /* \"#utility.yul\":1024:1029   */\n      dup2\n        /* \"#utility.yul\":997:1030   */\n      tag_26\n      jump\t// in\n    tag_44:\n        /* \"#utility.yul\":897:1036   */\n      swap3\n      swap2\n      pop\n      pop\n      jump\t// out\n        /* \"#utility.yul\":1042:1371   */\n    tag_15:\n        /* \"#utility.yul\":1101:1107   */\n      0x00\n        /* \"#utility.yul\":1150:1152   */\n      0x20\n        /* \"#utility.yul\":1138:1147   */\n      dup3\n        /* \"#utility.yul\":1129:1136   */\n      dup5\n        /* \"#utility.yul\":1125:1148   */\n      sub\n        /* \"#utility.yul\":1121:1153   */\n      slt\n        /* \"#utility.yul\":1118:1237   */\n      iszero\n      tag_46\n      jumpi\n        /* \"#utility.yul\":1156:1235   */\n      tag_47\n      tag_24\n      jump\t// in\n    tag_47:\n        /* \"#utility.yul\":1118:1237   */\n    tag_46:\n        /* \"#utility.yul\":1276:1277   */\n      0x00\n        /* \"#utility.yul\":1301:1354   */\n      tag_48\n        /* \"#utility.yul\":1346:1353   */\n      dup5\n        /* \"#utility.yul\":1337:1343   */\n      dup3\n        /* \"#utility.yul\":1326:1335   */\n      dup6\n        /* \"#utility.yul\":1322:1344   */\n      add\n        /* \"#utility.yul\":1301:1354   */\n      tag_27\n      jump\t// in\n    tag_48:\n        /* \"#utility.yul\":1291:1354   */\n      swap2\n      pop\n        /* \"#utility.yul\":1247:1364   */\n      pop\n        /* \"#utility.yul\":1042:1371   */\n      swap3\n      swap2\n      pop\n      pop\n      jump\t// out\n        /* \"#utility.yul\":1377:1546   */\n    tag_28:\n        /* \"#utility.yul\":1461:1472   */\n      0x00\n        /* \"#utility.yul\":1495:1501   */\n      dup3\n        /* \"#utility.yul\":1490:1493   */\n      dup3\n        /* \"#utility.yul\":1483:1502   */\n      mstore\n        /* \"#utility.yul\":1535:1539   */\n      0x20\n        /* \"#utility.yul\":1530:1533   */\n      dup3\n        /* \"#utility.yul\":1526:1540   */\n      add\n        /* \"#utility.yul\":1511:1540   */\n      swap1\n      pop\n        /* \"#utility.yul\":1377:1546   */\n      swap3\n      swap2\n      pop\n      pop\n      jump\t// out\n        /* \"#utility.yul\":1552:1787   */\n    tag_29:\n        /* \"#utility.yul\":1692:1726   */\n      0x536f6c6f2070756564652073657465617220656c2076616c6f7220656c206f77\n        /* \"#utility.yul\":1688:1689   */\n      0x00\n        /* \"#utility.yul\":1680:1686   */\n      dup3\n        /* \"#utility.yul\":1676:1690   */\n      add\n        /* \"#utility.yul\":1669:1727   */\n      mstore\n        /* \"#utility.yul\":1761:1779   */\n      0x6e65722064656c20636f6e747261746f00000000000000000000000000000000\n        /* \"#utility.yul\":1756:1758   */\n      0x20\n        /* \"#utility.yul\":1748:1754   */\n      dup3\n        /* \"#utility.yul\":1744:1759   */\n      add\n        /* \"#utility.yul\":1737:1780   */\n      mstore\n        /* \"#utility.yul\":1552:1787   */\n      pop\n      jump\t// out\n        /* \"#utility.yul\":1793:2159   */\n    tag_30:\n        /* \"#utility.yul\":1935:1938   */\n      0x00\n        /* \"#utility.yul\":1956:2023   */\n      tag_52\n        /* \"#utility.yul\":2020:2022   */\n      0x30\n        /* \"#utility.yul\":2015:2018   */\n      dup4\n        /* \"#utility.yul\":1956:2023   */\n      tag_28\n      jump\t// in\n    tag_52:\n        /* \"#utility.yul\":1949:2023   */\n      swap2\n      pop\n        /* \"#utility.yul\":2032:2125   */\n      tag_53\n        /* \"#utility.yul\":2121:2124   */\n      dup3\n        /* \"#utility.yul\":2032:2125   */\n      tag_29\n      jump\t// in\n    tag_53:\n        /* \"#utility.yul\":2150:2152   */\n      0x40\n        /* \"#utility.yul\":2145:2148   */\n      dup3\n        /* \"#utility.yul\":2141:2153   */\n      add\n        /* \"#utility.yul\":2134:2153   */\n      swap1\n      pop\n        /* \"#utility.yul\":1793:2159   */\n      swap2\n      swap1\n      pop\n      jump\t// out\n        /* \"#utility.yul\":2165:2584   */\n    tag_20:\n        /* \"#utility.yul\":2331:2335   */\n      0x00\n        /* \"#utility.yul\":2369:2371   */\n      0x20\n        /* \"#utility.yul\":2358:2367   */\n      dup3\n        /* \"#utility.yul\":2354:2372   */\n      add\n        /* \"#utility.yul\":2346:2372   */\n      swap1\n      pop\n        /* \"#utility.yul\":2418:2427   */\n      dup2\n        /* \"#utility.yul\":2412:2416   */\n      dup2\n        /* \"#utility.yul\":2408:2428   */\n      sub\n        /* \"#utility.yul\":2404:2405   */\n      0x00\n        /* \"#utility.yul\":2393:2402   */\n      dup4\n        /* \"#utility.yul\":2389:2406   */\n      add\n        /* \"#utility.yul\":2382:2429   */\n      mstore\n        /* \"#utility.yul\":2446:2577   */\n      tag_55\n        /* \"#utility.yul\":2572:2576   */\n      dup2\n        /* \"#utility.yul\":2446:2577   */\n      tag_30\n      jump\t// in\n    tag_55:\n        /* \"#utility.yul\":2438:2577   */\n      swap1\n      pop\n        /* \"#utility.yul\":2165:2584   */\n      swap2\n      swap1\n      pop\n      jump\t// out\n\n    auxdata: 0xa26469706673582212200fd514588656343dc16c03b46834baec5de9d75f78929567797d0b1c33257aaa64736f6c634300080f0033\n}\n",
				"bytecode": {
					"linkReferences": {},
					"object": "608060405234801561001057600080fd5b50336000806101000a81548173ffffffffffffffffffffffffffffffffffffffff021916908373ffffffffffffffffffffffffffffffffffffffff1602179055506102b4806100606000396000f3fe608060405234801561001057600080fd5b50600436106100415760003560e01c80630dbe671f14610046578063262a9dff14610064578063d5dcf12714610082575b600080fd5b61004e61009e565b60405161005b9190610162565b60405180910390f35b61006c6100a4565b6040516100799190610162565b60405180910390f35b61009c600480360381019061009791906101ae565b6100aa565b005b60025481565b60015481565b8060028190555060008054906101000a900473ffffffffffffffffffffffffffffffffffffffff1673ffffffffffffffffffffffffffffffffffffffff163373ffffffffffffffffffffffffffffffffffffffff161461013f576040517f08c379a00000000000000000000000000000000000000000000000000000000081526004016101369061025e565b60405180910390fd5b8060018190555050565b6000819050919050565b61015c81610149565b82525050565b60006020820190506101776000830184610153565b92915050565b600080fd5b61018b81610149565b811461019657600080fd5b50565b6000813590506101a881610182565b92915050565b6000602082840312156101c4576101c361017d565b5b60006101d284828501610199565b91505092915050565b600082825260208201905092915050565b7f536f6c6f2070756564652073657465617220656c2076616c6f7220656c206f7760008201527f6e65722064656c20636f6e747261746f00000000000000000000000000000000602082015250565b60006102486030836101db565b9150610253826101ec565b604082019050919050565b600060208201905081810360008301526102778161023b565b905091905056fea26469706673582212200fd514588656343dc16c03b46834baec5de9d75f78929567797d0b1c33257aaa64736f6c634300080f0033",
					"opcodes": "PUSH1 0x80 PUSH1 0x40 MSTORE CALLVALUE DUP1 ISZERO PUSH2 0x10 JUMPI PUSH1 0x0 DUP1 REVERT JUMPDEST POP CALLER PUSH1 0x0 DUP1 PUSH2 0x100 EXP DUP2 SLOAD DUP2 PUSH20 0xFFFFFFFFFFFFFFFFFFFFFFFFFFFFFFFFFFFFFFFF MUL NOT AND SWAP1 DUP4 PUSH20 0xFFFFFFFFFFFFFFFFFFFFFFFFFFFFFFFFFFFFFFFF AND MUL OR SWAP1 SSTORE POP PUSH2 0x2B4 DUP1 PUSH2 0x60 PUSH1 0x0 CODECOPY PUSH1 0x0 RETURN INVALID PUSH1 0x80 PUSH1 0x40 MSTORE CALLVALUE DUP1 ISZERO PUSH2 0x10 JUMPI PUSH1 0x0 DUP1 REVERT JUMPDEST POP PUSH1 0x4 CALLDATASIZE LT PUSH2 0x41 JUMPI PUSH1 0x0 CALLDATALOAD PUSH1 0xE0 SHR DUP1 PUSH4 0xDBE671F EQ PUSH2 0x46 JUMPI DUP1 PUSH4 0x262A9DFF EQ PUSH2 0x64 JUMPI DUP1 PUSH4 0xD5DCF127 EQ PUSH2 0x82 JUMPI JUMPDEST PUSH1 0x0 DUP1 REVERT JUMPDEST PUSH2 0x4E PUSH2 0x9E JUMP JUMPDEST PUSH1 0x40 MLOAD PUSH2 0x5B SWAP2 SWAP1 PUSH2 0x162 JUMP JUMPDEST PUSH1 0x40 MLOAD DUP1 SWAP2 SUB SWAP1 RETURN JUMPDEST PUSH2 0x6C PUSH2 0xA4 JUMP JUMPDEST PUSH1 0x40 MLOAD PUSH2 0x79 SWAP2 SWAP1 PUSH2 0x162 JUMP JUMPDEST PUSH1 0x40 MLOAD DUP1 SWAP2 SUB SWAP1 RETURN JUMPDEST PUSH2 0x9C PUSH1 0x4 DUP1 CALLDATASIZE SUB DUP2 ADD SWAP1 PUSH2 0x97 SWAP2 SWAP1 PUSH2 0x1AE JUMP JUMPDEST PUSH2 0xAA JUMP JUMPDEST STOP JUMPDEST PUSH1 0x2 SLOAD DUP2 JUMP JUMPDEST PUSH1 0x1 SLOAD DUP2 JUMP JUMPDEST DUP1 PUSH1 0x2 DUP2 SWAP1 SSTORE POP PUSH1 0x0 DUP1 SLOAD SWAP1 PUSH2 0x100 EXP SWAP1 DIV PUSH20 0xFFFFFFFFFFFFFFFFFFFFFFFFFFFFFFFFFFFFFFFF AND PUSH20 0xFFFFFFFFFFFFFFFFFFFFFFFFFFFFFFFFFFFFFFFF AND CALLER PUSH20 0xFFFFFFFFFFFFFFFFFFFFFFFFFFFFFFFFFFFFFFFF AND EQ PUSH2 0x13F JUMPI PUSH1 0x40 MLOAD PUSH32 0x8C379A000000000000000000000000000000000000000000000000000000000 DUP2 MSTORE PUSH1 0x4 ADD PUSH2 0x136 SWAP1 PUSH2 0x25E JUMP JUMPDEST PUSH1 0x40 MLOAD DUP1 SWAP2 SUB SWAP1 REVERT JUMPDEST DUP1 PUSH1 0x1 DUP2 SWAP1 SSTORE POP POP JUMP JUMPDEST PUSH1 0x0 DUP2 SWAP1 POP SWAP2 SWAP1 POP JUMP JUMPDEST PUSH2 0x15C DUP2 PUSH2 0x149 JUMP JUMPDEST DUP3 MSTORE POP POP JUMP JUMPDEST PUSH1 0x0 PUSH1 0x20 DUP3 ADD SWAP1 POP PUSH2 0x177 PUSH1 0x0 DUP4 ADD DUP5 PUSH2 0x153 JUMP JUMPDEST SWAP3 SWAP2 POP POP JUMP JUMPDEST PUSH1 0x0 DUP1 REVERT JUMPDEST PUSH2 0x18B DUP2 PUSH2 0x149 JUMP JUMPDEST DUP2 EQ PUSH2 0x196 JUMPI PUSH1 0x0 DUP1 REVERT JUMPDEST POP JUMP JUMPDEST PUSH1 0x0 DUP2 CALLDATALOAD SWAP1 POP PUSH2 0x1A8 DUP2 PUSH2 0x182 JUMP JUMPDEST SWAP3 SWAP2 POP POP JUMP JUMPDEST PUSH1 0x0 PUSH1 0x20 DUP3 DUP5 SUB SLT ISZERO PUSH2 0x1C4 JUMPI PUSH2 0x1C3 PUSH2 0x17D JUMP JUMPDEST JUMPDEST PUSH1 0x0 PUSH2 0x1D2 DUP5 DUP3 DUP6 ADD PUSH2 0x199 JUMP JUMPDEST SWAP2 POP POP SWAP3 SWAP2 POP POP JUMP JUMPDEST PUSH1 0x0 DUP3 DUP3 MSTORE PUSH1 0x20 DUP3 ADD SWAP1 POP SWAP3 SWAP2 POP POP JUMP JUMPDEST PUSH32 0x536F6C6F2070756564652073657465617220656C2076616C6F7220656C206F77 PUSH1 0x0 DUP3 ADD MSTORE PUSH32 0x6E65722064656C20636F6E747261746F00000000000000000000000000000000 PUSH1 0x20 DUP3 ADD MSTORE POP JUMP JUMPDEST PUSH1 0x0 PUSH2 0x248 PUSH1 0x30 DUP4 PUSH2 0x1DB JUMP JUMPDEST SWAP2 POP PUSH2 0x253 DUP3 PUSH2 0x1EC JUMP JUMPDEST PUSH1 0x40 DUP3 ADD SWAP1 POP SWAP2 SWAP1 POP JUMP JUMPDEST PUSH1 0x0 PUSH1 0x20 DUP3 ADD SWAP1 POP DUP2 DUP2 SUB PUSH1 0x0 DUP4 ADD MSTORE PUSH2 0x277 DUP2 PUSH2 0x23B JUMP JUMPDEST SWAP1 POP SWAP2 SWAP1 POP JUMP INVALID LOG2 PUSH5 0x6970667358 0x22 SLT KECCAK256 0xF 0xD5 EQ PC DUP7 JUMP CALLVALUE RETURNDATASIZE 0xC1 PUSH13 0x3B46834BAEC5DE9D75F789295 PUSH8 0x797D0B1C33257AAA PUSH5 0x736F6C6343 STOP ADDMOD 0xF STOP CALLER "
				},
				"gasEstimates": {
					"creation": {
						"codeDepositCost": "138400",
						"executionCost": "24449",
						"totalCost": "162849"
					},
					"external": {
						"a()": "2407",
						"age()": "2429",
						"setAge(uint256)": "46823"
					}
				},
				"methodIdentifiers": {
					"a()": "0dbe671f",
					"age()": "262a9dff",
					"setAge(uint256)": "d5dcf127"
				}
			},
			"storageLayout": {
				"storage": [
					{
						"astId": 3,
						"contract": "contracts/Clase2.sol:Testing",
						"label": "addr",
						"offset": 0,
						"slot": "0",
						"type": "t_address"
					},
					{
						"astId": 5,
						"contract": "contracts/Clase2.sol:Testing",
						"label": "age",
						"offset": 0,
						"slot": "1",
						"type": "t_uint256"
					},
					{
						"astId": 7,
						"contract": "contracts/Clase2.sol:Testing",
						"label": "a",
						"offset": 0,
						"slot": "2",
						"type": "t_uint256"
					}
				],
				"types": {
					"t_address": {
						"encoding": "inplace",
						"label": "address",
						"numberOfBytes": "20"
					},
					"t_uint256": {
						"encoding": "inplace",
						"label": "uint256",
						"numberOfBytes": "32"
					}
				}
			},
			"userdoc": {
				"kind": "user",
				"methods": {},
				"version": 1
			}
		}
	}
}